{
  "contractName": "TlaliCoin",
  "abi": [
    {
      "constant": true,
      "inputs": [],
      "name": "name",
      "outputs": [
        {
          "name": "",
          "type": "string"
        }
      ],
      "payable": false,
      "stateMutability": "view",
      "type": "function",
      "signature": "0x06fdde03"
    },
    {
      "constant": false,
      "inputs": [
        {
          "name": "spender",
          "type": "address"
        },
        {
          "name": "value",
          "type": "uint256"
        }
      ],
      "name": "approve",
      "outputs": [
        {
          "name": "",
          "type": "bool"
        }
      ],
      "payable": false,
      "stateMutability": "nonpayable",
      "type": "function",
      "signature": "0x095ea7b3"
    },
    {
      "constant": true,
      "inputs": [],
      "name": "totalSupply",
      "outputs": [
        {
          "name": "",
          "type": "uint256"
        }
      ],
      "payable": false,
      "stateMutability": "view",
      "type": "function",
      "signature": "0x18160ddd"
    },
    {
      "constant": true,
      "inputs": [],
      "name": "decimals",
      "outputs": [
        {
          "name": "",
          "type": "uint8"
        }
      ],
      "payable": false,
      "stateMutability": "view",
      "type": "function",
      "signature": "0x313ce567"
    },
    {
      "constant": false,
      "inputs": [
        {
          "name": "spender",
          "type": "address"
        },
        {
          "name": "addedValue",
          "type": "uint256"
        }
      ],
      "name": "increaseAllowance",
      "outputs": [
        {
          "name": "",
          "type": "bool"
        }
      ],
      "payable": false,
      "stateMutability": "nonpayable",
      "type": "function",
      "signature": "0x39509351"
    },
    {
      "constant": true,
      "inputs": [],
      "name": "symbol",
      "outputs": [
        {
          "name": "",
          "type": "string"
        }
      ],
      "payable": false,
      "stateMutability": "view",
      "type": "function",
      "signature": "0x95d89b41"
    },
    {
      "constant": false,
      "inputs": [
        {
          "name": "spender",
          "type": "address"
        },
        {
          "name": "subtractedValue",
          "type": "uint256"
        }
      ],
      "name": "decreaseAllowance",
      "outputs": [
        {
          "name": "",
          "type": "bool"
        }
      ],
      "payable": false,
      "stateMutability": "nonpayable",
      "type": "function",
      "signature": "0xa457c2d7"
    },
    {
      "constant": true,
      "inputs": [
        {
          "name": "owner",
          "type": "address"
        },
        {
          "name": "spender",
          "type": "address"
        }
      ],
      "name": "allowance",
      "outputs": [
        {
          "name": "",
          "type": "uint256"
        }
      ],
      "payable": false,
      "stateMutability": "view",
      "type": "function",
      "signature": "0xdd62ed3e"
    },
    {
      "inputs": [],
      "payable": false,
      "stateMutability": "nonpayable",
      "type": "constructor",
      "signature": "constructor"
    },
    {
      "anonymous": false,
      "inputs": [
        {
          "indexed": true,
          "name": "from",
          "type": "address"
        },
        {
          "indexed": true,
          "name": "to",
          "type": "address"
        },
        {
          "indexed": false,
          "name": "value",
          "type": "uint256"
        }
      ],
      "name": "Transfer",
      "type": "event",
      "signature": "0xddf252ad1be2c89b69c2b068fc378daa952ba7f163c4a11628f55a4df523b3ef"
    },
    {
      "anonymous": false,
      "inputs": [
        {
          "indexed": true,
          "name": "owner",
          "type": "address"
        },
        {
          "indexed": true,
          "name": "spender",
          "type": "address"
        },
        {
          "indexed": false,
          "name": "value",
          "type": "uint256"
        }
      ],
      "name": "Approval",
      "type": "event",
      "signature": "0x8c5be1e5ebec7d5bd14f71427d1e84f3dd0314c0f7b2291e5b200ac8c7c3b925"
    },
    {
      "anonymous": false,
      "inputs": [
        {
          "indexed": true,
          "name": "from",
          "type": "address"
        },
        {
          "indexed": true,
          "name": "to",
          "type": "address"
        },
        {
          "indexed": false,
          "name": "value",
          "type": "uint256"
        },
        {
          "indexed": false,
          "name": "data",
          "type": "bytes"
        }
      ],
      "name": "Transfer",
      "type": "event",
      "signature": "0xe19260aff97b920c7df27010903aeb9c8d2be5d310a2c67824cf3f15396e4c16"
    },
    {
      "constant": true,
      "inputs": [
        {
          "name": "_owner",
          "type": "address"
        }
      ],
      "name": "balanceOf",
      "outputs": [
        {
          "name": "balance",
          "type": "uint256"
        }
      ],
      "payable": false,
      "stateMutability": "view",
      "type": "function",
      "signature": "0x70a08231"
    },
    {
      "constant": false,
      "inputs": [
        {
          "name": "_to",
          "type": "address"
        },
        {
          "name": "_value",
          "type": "uint256"
        }
      ],
      "name": "transfer",
      "outputs": [
        {
          "name": "",
          "type": "bool"
        }
      ],
      "payable": false,
      "stateMutability": "nonpayable",
      "type": "function",
      "signature": "0xa9059cbb"
    },
    {
      "constant": false,
      "inputs": [
        {
          "name": "_to",
          "type": "address"
        },
        {
          "name": "_value",
          "type": "uint256"
        },
        {
          "name": "_data",
          "type": "bytes"
        }
      ],
      "name": "transfer",
      "outputs": [
        {
          "name": "",
          "type": "bool"
        }
      ],
      "payable": false,
      "stateMutability": "nonpayable",
      "type": "function",
      "signature": "0xbe45fd62"
    },
    {
      "constant": false,
      "inputs": [
        {
          "name": "from",
          "type": "address"
        },
        {
          "name": "to",
          "type": "address"
        },
        {
          "name": "value",
          "type": "uint256"
        }
      ],
      "name": "transferFrom",
      "outputs": [
        {
          "name": "",
          "type": "bool"
        }
      ],
      "payable": false,
      "stateMutability": "nonpayable",
      "type": "function",
      "signature": "0x23b872dd"
    }
  ],
  "bytecode": "0x608060405263ba43b7406000556040518060400160405280600981526020017f546c616c69436f696e000000000000000000000000000000000000000000000081525060039080519060200190620000599291906200011e565b506040518060400160405280600581526020017f544c414c4900000000000000000000000000000000000000000000000000000081525060049080519060200190620000a79291906200011e565b506000600560006101000a81548160ff021916908360ff160217905550348015620000d157600080fd5b50600054600160003373ffffffffffffffffffffffffffffffffffffffff1673ffffffffffffffffffffffffffffffffffffffff16815260200190815260200160002081905550620001cd565b828054600181600116156101000203166002900490600052602060002090601f016020900481019282601f106200016157805160ff191683800117855562000192565b8280016001018555821562000192579182015b828111156200019157825182559160200191906001019062000174565b5b509050620001a19190620001a5565b5090565b620001ca91905b80821115620001c6576000816000905550600101620001ac565b5090565b90565b6116b780620001dd6000396000f3fe608060405234801561001057600080fd5b50600436106100d1576000357c01000000000000000000000000000000000000000000000000000000009004806370a082311161008e57806370a08231146102ed57806395d89b4114610345578063a457c2d7146103c8578063a9059cbb1461042e578063be45fd6214610494578063dd62ed3e14610591576100d1565b806306fdde03146100d6578063095ea7b31461015957806318160ddd146101bf57806323b872dd146101dd578063313ce567146102635780633950935114610287575b600080fd5b6100de610609565b6040518080602001828103825283818151815260200191508051906020019080838360005b8381101561011e578082015181840152602081019050610103565b50505050905090810190601f16801561014b5780820380516001836020036101000a031916815260200191505b509250505060405180910390f35b6101a56004803603604081101561016f57600080fd5b81019080803573ffffffffffffffffffffffffffffffffffffffff169060200190929190803590602001909291905050506106a7565b604051808215151515815260200191505060405180910390f35b6101c76107d2565b6040518082815260200191505060405180910390f35b610249600480360360608110156101f357600080fd5b81019080803573ffffffffffffffffffffffffffffffffffffffff169060200190929190803573ffffffffffffffffffffffffffffffffffffffff169060200190929190803590602001909291905050506107d8565b604051808215151515815260200191505060405180910390f35b61026b6109e0565b604051808260ff1660ff16815260200191505060405180910390f35b6102d36004803603604081101561029d57600080fd5b81019080803573ffffffffffffffffffffffffffffffffffffffff169060200190929190803590602001909291905050506109f3565b604051808215151515815260200191505060405180910390f35b61032f6004803603602081101561030357600080fd5b81019080803573ffffffffffffffffffffffffffffffffffffffff169060200190929190505050610c28565b6040518082815260200191505060405180910390f35b61034d610c71565b6040518080602001828103825283818151815260200191508051906020019080838360005b8381101561038d578082015181840152602081019050610372565b50505050905090810190601f1680156103ba5780820380516001836020036101000a031916815260200191505b509250505060405180910390f35b610414600480360360408110156103de57600080fd5b81019080803573ffffffffffffffffffffffffffffffffffffffff16906020019092919080359060200190929190505050610d0f565b604051808215151515815260200191505060405180910390f35b61047a6004803603604081101561044457600080fd5b81019080803573ffffffffffffffffffffffffffffffffffffffff16906020019092919080359060200190929190505050610f44565b604051808215151515815260200191505060405180910390f35b610577600480360360608110156104aa57600080fd5b81019080803573ffffffffffffffffffffffffffffffffffffffff16906020019092919080359060200190929190803590602001906401000000008111156104f157600080fd5b82018360208201111561050357600080fd5b8035906020019184600183028401116401000000008311171561052557600080fd5b91908080601f016020809104026020016040519081016040528093929190818152602001838380828437600081840152601f19601f82011690508083019250505050505050919291929050505061116a565b604051808215151515815260200191505060405180910390f35b6105f3600480360360408110156105a757600080fd5b81019080803573ffffffffffffffffffffffffffffffffffffffff169060200190929190803573ffffffffffffffffffffffffffffffffffffffff16906020019092919050505061138e565b6040518082815260200191505060405180910390f35b60038054600181600116156101000203166002900480601f01602080910402602001604051908101604052809291908181526020018280546001816001161561010002031660029004801561069f5780601f106106745761010080835404028352916020019161069f565b820191906000526020600020905b81548152906001019060200180831161068257829003601f168201915b505050505081565b60008073ffffffffffffffffffffffffffffffffffffffff168373ffffffffffffffffffffffffffffffffffffffff1614156106e257600080fd5b81600260003373ffffffffffffffffffffffffffffffffffffffff1673ffffffffffffffffffffffffffffffffffffffff16815260200190815260200160002060008573ffffffffffffffffffffffffffffffffffffffff1673ffffffffffffffffffffffffffffffffffffffff168152602001908152602001600020819055508273ffffffffffffffffffffffffffffffffffffffff163373ffffffffffffffffffffffffffffffffffffffff167f8c5be1e5ebec7d5bd14f71427d1e84f3dd0314c0f7b2291e5b200ac8c7c3b925846040518082815260200191505060405180910390a36001905092915050565b60005481565b600061086982600260008773ffffffffffffffffffffffffffffffffffffffff1673ffffffffffffffffffffffffffffffffffffffff16815260200190815260200160002060003373ffffffffffffffffffffffffffffffffffffffff1673ffffffffffffffffffffffffffffffffffffffff1681526020019081526020016000205461141590919063ffffffff16565b600260008673ffffffffffffffffffffffffffffffffffffffff1673ffffffffffffffffffffffffffffffffffffffff16815260200190815260200160002060003373ffffffffffffffffffffffffffffffffffffffff1673ffffffffffffffffffffffffffffffffffffffff168152602001908152602001600020819055506108f4848484611435565b3373ffffffffffffffffffffffffffffffffffffffff168473ffffffffffffffffffffffffffffffffffffffff167f8c5be1e5ebec7d5bd14f71427d1e84f3dd0314c0f7b2291e5b200ac8c7c3b925600260008873ffffffffffffffffffffffffffffffffffffffff1673ffffffffffffffffffffffffffffffffffffffff16815260200190815260200160002060003373ffffffffffffffffffffffffffffffffffffffff1673ffffffffffffffffffffffffffffffffffffffff168152602001908152602001600020546040518082815260200191505060405180910390a3600190509392505050565b600560009054906101000a900460ff1681565b60008073ffffffffffffffffffffffffffffffffffffffff168373ffffffffffffffffffffffffffffffffffffffff161415610a2e57600080fd5b610abd82600260003373ffffffffffffffffffffffffffffffffffffffff1673ffffffffffffffffffffffffffffffffffffffff16815260200190815260200160002060008673ffffffffffffffffffffffffffffffffffffffff1673ffffffffffffffffffffffffffffffffffffffff1681526020019081526020016000205461166c90919063ffffffff16565b600260003373ffffffffffffffffffffffffffffffffffffffff1673ffffffffffffffffffffffffffffffffffffffff16815260200190815260200160002060008573ffffffffffffffffffffffffffffffffffffffff1673ffffffffffffffffffffffffffffffffffffffff168152602001908152602001600020819055508273ffffffffffffffffffffffffffffffffffffffff163373ffffffffffffffffffffffffffffffffffffffff167f8c5be1e5ebec7d5bd14f71427d1e84f3dd0314c0f7b2291e5b200ac8c7c3b925600260003373ffffffffffffffffffffffffffffffffffffffff1673ffffffffffffffffffffffffffffffffffffffff16815260200190815260200160002060008773ffffffffffffffffffffffffffffffffffffffff1673ffffffffffffffffffffffffffffffffffffffff168152602001908152602001600020546040518082815260200191505060405180910390a36001905092915050565b6000600160008373ffffffffffffffffffffffffffffffffffffffff1673ffffffffffffffffffffffffffffffffffffffff168152602001908152602001600020549050919050565b60048054600181600116156101000203166002900480601f016020809104026020016040519081016040528092919081815260200182805460018160011615610100020316600290048015610d075780601f10610cdc57610100808354040283529160200191610d07565b820191906000526020600020905b815481529060010190602001808311610cea57829003601f168201915b505050505081565b60008073ffffffffffffffffffffffffffffffffffffffff168373ffffffffffffffffffffffffffffffffffffffff161415610d4a57600080fd5b610dd982600260003373ffffffffffffffffffffffffffffffffffffffff1673ffffffffffffffffffffffffffffffffffffffff16815260200190815260200160002060008673ffffffffffffffffffffffffffffffffffffffff1673ffffffffffffffffffffffffffffffffffffffff1681526020019081526020016000205461141590919063ffffffff16565b600260003373ffffffffffffffffffffffffffffffffffffffff1673ffffffffffffffffffffffffffffffffffffffff16815260200190815260200160002060008573ffffffffffffffffffffffffffffffffffffffff1673ffffffffffffffffffffffffffffffffffffffff168152602001908152602001600020819055508273ffffffffffffffffffffffffffffffffffffffff163373ffffffffffffffffffffffffffffffffffffffff167f8c5be1e5ebec7d5bd14f71427d1e84f3dd0314c0f7b2291e5b200ac8c7c3b925600260003373ffffffffffffffffffffffffffffffffffffffff1673ffffffffffffffffffffffffffffffffffffffff16815260200190815260200160002060008773ffffffffffffffffffffffffffffffffffffffff1673ffffffffffffffffffffffffffffffffffffffff168152602001908152602001600020546040518082815260200191505060405180910390a36001905092915050565b6000806060843b9150610f58338686611435565b60008211156110905760008590508073ffffffffffffffffffffffffffffffffffffffff1663c0ee0b8a3387856040518463ffffffff167c0100000000000000000000000000000000000000000000000000000000028152600401808473ffffffffffffffffffffffffffffffffffffffff1673ffffffffffffffffffffffffffffffffffffffff16815260200183815260200180602001828103825283818151815260200191508051906020019080838360005b8381101561102857808201518184015260208101905061100d565b50505050905090810190601f1680156110555780820380516001836020036101000a031916815260200191505b50945050505050600060405180830381600087803b15801561107657600080fd5b505af115801561108a573d6000803e3d6000fd5b50505050505b8473ffffffffffffffffffffffffffffffffffffffff163373ffffffffffffffffffffffffffffffffffffffff167fe19260aff97b920c7df27010903aeb9c8d2be5d310a2c67824cf3f15396e4c1686846040518083815260200180602001828103825283818151815260200191508051906020019080838360005b8381101561112757808201518184015260208101905061110c565b50505050905090810190601f1680156111545780820380516001836020036101000a031916815260200191505b50935050505060405180910390a3505092915050565b600080843b905061117c338686611435565b60008111156112b45760008590508073ffffffffffffffffffffffffffffffffffffffff1663c0ee0b8a3387876040518463ffffffff167c0100000000000000000000000000000000000000000000000000000000028152600401808473ffffffffffffffffffffffffffffffffffffffff1673ffffffffffffffffffffffffffffffffffffffff16815260200183815260200180602001828103825283818151815260200191508051906020019080838360005b8381101561124c578082015181840152602081019050611231565b50505050905090810190601f1680156112795780820380516001836020036101000a031916815260200191505b50945050505050600060405180830381600087803b15801561129a57600080fd5b505af11580156112ae573d6000803e3d6000fd5b50505050505b8473ffffffffffffffffffffffffffffffffffffffff163373ffffffffffffffffffffffffffffffffffffffff167fe19260aff97b920c7df27010903aeb9c8d2be5d310a2c67824cf3f15396e4c1686866040518083815260200180602001828103825283818151815260200191508051906020019080838360005b8381101561134b578082015181840152602081019050611330565b50505050905090810190601f1680156113785780820380516001836020036101000a031916815260200191505b50935050505060405180910390a3509392505050565b6000600260008473ffffffffffffffffffffffffffffffffffffffff1673ffffffffffffffffffffffffffffffffffffffff16815260200190815260200160002060008373ffffffffffffffffffffffffffffffffffffffff1673ffffffffffffffffffffffffffffffffffffffff16815260200190815260200160002054905092915050565b60008282111561142457600080fd5b600082840390508091505092915050565b600073ffffffffffffffffffffffffffffffffffffffff168273ffffffffffffffffffffffffffffffffffffffff1614156114d8576040517f08c379a00000000000000000000000000000000000000000000000000000000081526004018080602001828103825260208152602001807f53652070726576696e6f20656e76696f206120646972656363696f6e2030783081525060200191505060405180910390fd5b61152a81600160008673ffffffffffffffffffffffffffffffffffffffff1673ffffffffffffffffffffffffffffffffffffffff1681526020019081526020016000205461141590919063ffffffff16565b600160008573ffffffffffffffffffffffffffffffffffffffff1673ffffffffffffffffffffffffffffffffffffffff168152602001908152602001600020819055506115bf81600160008573ffffffffffffffffffffffffffffffffffffffff1673ffffffffffffffffffffffffffffffffffffffff1681526020019081526020016000205461166c90919063ffffffff16565b600160008473ffffffffffffffffffffffffffffffffffffffff1673ffffffffffffffffffffffffffffffffffffffff168152602001908152602001600020819055508173ffffffffffffffffffffffffffffffffffffffff168373ffffffffffffffffffffffffffffffffffffffff167fddf252ad1be2c89b69c2b068fc378daa952ba7f163c4a11628f55a4df523b3ef836040518082815260200191505060405180910390a3505050565b60008082840190508381101561168157600080fd5b809150509291505056fea165627a7a72305820e0cb115ae9d7cc1eb6669be33ff2799dc2b14a486583605e53141d45989511cc0029",
  "source": "pragma solidity 0.5.8;\r\n\r\n/**\r\n * @title TlaliCoin es un token que incentiva el reciclaje\r\n * @dev Carlos Noverón https://github.com/carlosescom/TlaliCoin\r\n */\r\n\r\nimport \"./ERC20.sol\";\r\nimport \"./IERC223.sol\";\r\nimport \"./IERC223_Receiver.sol\";\r\nimport \"./SafeMath.sol\";\r\n\r\ncontract TlaliCoin is IERC223, ERC20 {\r\n  string public name = \"TlaliCoin\";\r\n  string public symbol = \"TLALI\";\r\n  uint8 public decimals = 0;\r\n\r\n  constructor() public {\r\n    balances[msg.sender] = totalSupply;\r\n  }\r\n\r\n  /**\r\n    * @dev Devuleve el balance de la cuenta designada en el parámetro `_owner`.\r\n    *\r\n    * @param _owner   La dirección cuyo balance se está consultando.\r\n    * @return balance Balance del propietario de los fondos (_owner).\r\n    */\r\n  function balanceOf(address _owner) public view returns (uint balance) {\r\n    return balances[_owner];\r\n  }\r\n\r\n  /**\r\n    * @dev Transfiere la cantidad especificada de tokens a la dirección especificada.\r\n    * Invoca la función `tokenFallback` si el destinatario es un contrato.\r\n    * La transferencia de tokens falla si el receptor es un contrato pero no\r\n    * implementa la función `tokenFallback` o la función de respaldo para recibir fondos.\r\n    *\r\n    * @param _to Dirección del receptor.\r\n    * @param _value Cantidad de tokens a transferir.\r\n    * @param _data Metadatos de la transacción.\r\n    */\r\n  function transfer(address _to, uint _value, bytes memory _data) public returns (bool) {\r\n    // La función transfer es similar a la transfer de un ERC20 sin _data.\r\n    // Añadido debido a razones de compatibilidad hacia atrás.\r\n    uint codeLength;\r\n    assembly {\r\n      // Devuelve el tamaño del código en la dirección de destino, ésto necesita ensamblador.\r\n      codeLength := extcodesize(_to)\r\n    }\r\n    _transfer(msg.sender, _to, _value);\r\n    if (codeLength > 0) {\r\n      IERC223_Receiver receiver = IERC223_Receiver(_to);\r\n      receiver.tokenFallback(msg.sender, _value, _data);\r\n    }\r\n    emit Transfer(msg.sender, _to, _value, _data);\r\n  }\r\n\r\n  /**\r\n    * @dev Transfiere una cantidad de tokens a la dirección especificada.\r\n    * Esta función funciona de la misma manera que la anterior pero no contiene\r\n    * el parámetro `_data`. Añadido debido a razones de compatibilidad.\r\n    *\r\n    * @param _to Dirección del receptor.\r\n    * @param _value Cantidad de tokens a transferir.\r\n    */\r\n  function transfer(address _to, uint _value) public returns (bool) {\r\n    uint codeLength;\r\n    bytes memory empty;\r\n    assembly {\r\n      // Devuelve el tamaño del código en la dirección de destino, ésto necesita ensamblador.\r\n      codeLength := extcodesize(_to)\r\n    }\r\n    _transfer(msg.sender, _to, _value);\r\n    if (codeLength > 0) {\r\n      IERC223_Receiver receiver = IERC223_Receiver(_to);\r\n      receiver.tokenFallback(msg.sender, _value, empty);\r\n    }\r\n    emit Transfer(msg.sender, _to, _value, empty);\r\n  }\r\n\r\n  /**\r\n    * @dev Transfiere una cantidad de tokens de una dirección a otra.\r\n    * Para poder ejecutar esta función se requiere primero que el dueño de los fondos\r\n    * apruebe primero que otra dirección gaste tokens de su cuenta. Para lo cual\r\n    * es necesario ejecutar primero la función `Approve` con la cantidad máxima de tokens\r\n    * que el dueño de los fondos está dispuesto a que otro gaste de su cuenta.\r\n    * @param from Dirección del dueño de los fondos.\r\n    * @param to Dirección del receptor.\r\n    * @param value Cantidad de tokens a transferir.\r\n    */\r\n  function transferFrom(address from, address to, uint256 value) public returns (bool) {\r\n    allowed[from][msg.sender] = allowed[from][msg.sender].sub(value);\r\n    _transfer(from, to, value);\r\n    emit Approval(from, msg.sender, allowed[from][msg.sender]);\r\n    return true;\r\n  }\r\n\r\n  function _transfer(address from, address to, uint256 value) internal {\r\n    require(to != address(0),\"Se previno envio a direccion 0x0\");\r\n    balances[from] = balances[from].sub(value);\r\n    balances[to] = balances[to].add(value);\r\n    emit Transfer(from, to, value);\r\n  }\r\n}\r\n",
  "sourcePath": "C:/Users/carlo/Desktop/Git Repos/TlaliCoin/contracts/TlaliCoin.sol",
  "compiler": {
    "name": "solc",
    "version": "0.5.8+commit.23d335f2.Emscripten.clang"
  },
  "schemaVersion": "3.0.1",
  "updatedAt": "2019-07-03T17:31:40.303Z",
  "devdoc": {
    "methods": {
      "allowance(address,address)": {
        "details": "Function to check the amount of tokens that an owner allowed to a spender.",
        "params": {
          "owner": "address The address which owns the funds.",
          "spender": "address The address which will spend the funds."
        },
        "return": "A uint256 specifying the amount of tokens still available for the spender."
      },
      "approve(address,uint256)": {
        "details": "Approve the passed address to spend the specified amount of tokens on behalf of msg.sender. Beware that changing an allowance with this method brings the risk that someone may use both the old and the new allowance by unfortunate transaction ordering. One possible solution to mitigate this race condition is to first reduce the spender's allowance to 0 and set the desired value afterwards: https://github.com/ethereum/EIPs/issues/20#issuecomment-263524729",
        "params": {
          "spender": "The address which will spend the funds.",
          "value": "The amount of tokens to be spent."
        }
      },
      "balanceOf(address)": {
        "details": "Devuleve el balance de la cuenta designada en el parámetro `_owner`.\r ",
        "params": {
          "_owner": "La dirección cuyo balance se está consultando.\r"
        },
        "return": "balance Balance del propietario de los fondos (_owner).\r"
      },
      "decreaseAllowance(address,uint256)": {
        "details": "Decrease the amount of tokens that an owner allowed to a spender. approve should be called when allowed_[_spender] == 0. To decrement allowed value is better to use this function to avoid 2 calls (and wait until the first transaction is mined) From MonolithDAO Token.sol Emits an Approval event.",
        "params": {
          "spender": "The address which will spend the funds.",
          "subtractedValue": "The amount of tokens to decrease the allowance by."
        }
      },
      "increaseAllowance(address,uint256)": {
        "details": "Increase the amount of tokens that an owner allowed to a spender. approve should be called when allowed_[_spender] == 0. To increment allowed value is better to use this function to avoid 2 calls (and wait until the first transaction is mined) From MonolithDAO Token.sol Emits an Approval event.",
        "params": {
          "addedValue": "The amount of tokens to increase the allowance by.",
          "spender": "The address which will spend the funds."
        }
      },
      "transfer(address,uint256)": {
        "details": "Transfiere una cantidad de tokens a la dirección especificada.\r Esta función funciona de la misma manera que la anterior pero no contiene\r el parámetro `_data`. Añadido debido a razones de compatibilidad.\r ",
        "params": {
          "_to": "Dirección del receptor.\r",
          "_value": "Cantidad de tokens a transferir.\r"
        }
      },
      "transfer(address,uint256,bytes)": {
        "details": "Transfiere la cantidad especificada de tokens a la dirección especificada.\r Invoca la función `tokenFallback` si el destinatario es un contrato.\r La transferencia de tokens falla si el receptor es un contrato pero no\r implementa la función `tokenFallback` o la función de respaldo para recibir fondos.\r ",
        "params": {
          "_data": "Metadatos de la transacción.\r",
          "_to": "Dirección del receptor.\r",
          "_value": "Cantidad de tokens a transferir.\r"
        }
      },
      "transferFrom(address,address,uint256)": {
        "details": "Transfiere una cantidad de tokens de una dirección a otra.\r Para poder ejecutar esta función se requiere primero que el dueño de los fondos\r apruebe primero que otra dirección gaste tokens de su cuenta. Para lo cual\r es necesario ejecutar primero la función `Approve` con la cantidad máxima de tokens\r que el dueño de los fondos está dispuesto a que otro gaste de su cuenta.\r",
        "params": {
          "from": "Dirección del dueño de los fondos.\r",
          "to": "Dirección del receptor.\r",
          "value": "Cantidad de tokens a transferir.\r"
        }
      }
    }
  },
  "userdoc": {
    "methods": {}
  }
}